{
  "_format": "hh-sol-artifact-1",
  "contractName": "Hack",
  "sourceName": "contracts/Hack.sol",
  "abi": [
    {
      "inputs": [
        {
          "internalType": "address",
          "name": "_instaAdd",
          "type": "address"
        }
      ],
      "stateMutability": "nonpayable",
      "type": "constructor"
    },
    {
      "inputs": [],
      "name": "callBuy",
      "outputs": [],
      "stateMutability": "nonpayable",
      "type": "function"
    },
    {
      "inputs": [],
      "name": "price",
      "outputs": [
        {
          "internalType": "uint256",
          "name": "",
          "type": "uint256"
        }
      ],
      "stateMutability": "view",
      "type": "function"
    }
  ],
  "bytecode": "0x608060405234801561001057600080fd5b506040516103433803806103438339818101604052602081101561003357600080fd5b810190808051906020019092919050505080600160006101000a81548173ffffffffffffffffffffffffffffffffffffffff021916908373ffffffffffffffffffffffffffffffffffffffff160217905550506102ae806100956000396000f3fe608060405234801561001057600080fd5b50600436106100365760003560e01c80637388d0571461003b578063a035b1fe14610045575b600080fd5b610043610063565b005b61004d6101be565b6040518082815260200191505060405180910390f35b600160009054906101000a900473ffffffffffffffffffffffffffffffffffffffff1673ffffffffffffffffffffffffffffffffffffffff166040516024016040516020818303038152906040527fa6f2ae3a000000000000000000000000000000000000000000000000000000007bffffffffffffffffffffffffffffffffffffffffffffffffffffffff19166020820180517bffffffffffffffffffffffffffffffffffffffffffffffffffffffff83818316178352505050506040518082805190602001908083835b60208310610152578051825260208201915060208101905060208303925061012f565b6001836020036101000a0380198251168184511680821785525050505050509050019150506000604051808303816000865af19150503d80600081146101b4576040519150601f19603f3d011682016040523d82523d6000602084013e6101b9565b606091505b505050565b6000600160009054906101000a900473ffffffffffffffffffffffffffffffffffffffff1673ffffffffffffffffffffffffffffffffffffffff1663e852e7416040518163ffffffff1660e01b815260040160206040518083038186803b15801561022857600080fd5b505afa15801561023c573d6000803e3d6000fd5b505050506040513d602081101561025257600080fd5b81019080805190602001909291905050506102705760659050610275565b600090505b9056fea2646970667358221220d685b247545298d2bda600cb239fe44b037cab470a4402da94f7bca4eb50005064736f6c63430006000033",
  "linkReferences": {},
  "deployedLinkReferences": {}
}