{
  "_format": "hh-sol-artifact-1",
  "contractName": "Shop",
  "sourceName": "contracts/Shop.sol",
  "abi": [
    {
      "inputs": [],
      "name": "buy",
      "outputs": [],
      "stateMutability": "nonpayable",
      "type": "function"
    },
    {
      "inputs": [],
      "name": "isSold",
      "outputs": [
        {
          "internalType": "bool",
          "name": "",
          "type": "bool"
        }
      ],
      "stateMutability": "view",
      "type": "function"
    },
    {
      "inputs": [],
      "name": "price",
      "outputs": [
        {
          "internalType": "uint256",
          "name": "",
          "type": "uint256"
        }
      ],
      "stateMutability": "view",
      "type": "function"
    }
  ],
  "bytecode": "0x6080604052606460005534801561001557600080fd5b5061022d806100256000396000f3fe608060405234801561001057600080fd5b50600436106100415760003560e01c8063a035b1fe14610046578063a6f2ae3a14610064578063e852e7411461006e575b600080fd5b61004e610090565b6040518082815260200191505060405180910390f35b61006c610096565b005b6100766101e4565b604051808215151515815260200191505060405180910390f35b60005481565b60003390506000548173ffffffffffffffffffffffffffffffffffffffff1663a035b1fe6040518163ffffffff1660e01b815260040160206040518083038186803b1580156100e457600080fd5b505afa1580156100f8573d6000803e3d6000fd5b505050506040513d602081101561010e57600080fd5b81019080805190602001909291905050501015801561013a5750600160009054906101000a900460ff16155b156101e15760018060006101000a81548160ff0219169083151502179055508073ffffffffffffffffffffffffffffffffffffffff1663a035b1fe6040518163ffffffff1660e01b815260040160206040518083038186803b15801561019f57600080fd5b505afa1580156101b3573d6000803e3d6000fd5b505050506040513d60208110156101c957600080fd5b81019080805190602001909291905050506000819055505b50565b600160009054906101000a900460ff168156fea264697066735822122070bab36646983b79a78237d1d41b618b1544321dcc6d62c0d960582e3b434acb64736f6c63430006000033",
  "linkReferences": {},
  "deployedLinkReferences": {}
}